:100000000C9434000C9449000C9449000C94490061
:100010000C9449000C9449000C9449000C9449003C
:100020000C9449000C9449000C9449000C9449002C
:100030000C9449000C9449000C9449000C9449001C
:100040000C9449000C9449000C9449000C9449000C
:100050000C9449000C9449000C9449000C944900FC
:100060000C9449000C94490011241FBECFEFD8E036
:10007000DEBFCDBF11E0A0E0B1E0ECEDF0E002C0EA
:1000800005900D92A031B107D9F70E944B000C9456
:100090006C000C940000DF93CF93CDB7DEB7609770
:1000A0000FB6F894DEBF0FBECDBF17B88FEF84B97F
:1000B000DE011196E0E0F1E080E101900D928150C7
:1000C000E1F79E012F5F3F4F86B18F70F901E80F76
:0C00D000F11D808185B9F8CFF894FFCFB6
:1000DC003F065B4F666D7D077F6F777C395E79716C
:00000001FF
