:020000020000FC
:1000000000C00FEF04B90FEF05B908E707B907E71C
:1000100030E00E943A000FEF0016B1F40FE635E031
:100020000E943A000FEF001679F40FE53AE00E94C3
:100030003A000FEF001641F40FE33FE00E943A0050
:100040000FEF001609F4E3CF0E942700E0CFEF93F3
:10005000FF930F92E4EAF0E00FE02023E20F00E0CC
:10006000F01FC89500940FEF04B905B80F90FF91E9
:10007000EF910895E4EAF0E008B916B107E0102323
:10008000130F135000E0E10FF01FC895202D0895C5
:1000900001FF0203FF04FF0506FF07FF0809FF0A2F
:1000A000FF000BFF3F065B4F666D7D077F6F777C20
:0400B000395E7971CB
:00000001FF
